:100000000C942A000C9447000C9447000C94470071
:100010000C9447000C9447000C9447000C94470044
:100020000C9447000C9447000C9447000C94470034
:100030000C9447000C9447000C9447000C94470024
:100040000C9447000C9447000C9447000C94470014
:100050000C94470011241FBECFE5D8E0DEBFCDBF12
:1000600010E0A0E6B0E0E4E0F7E202C005900D92F7
:10007000A03DB107D9F723E0A0EDB0E001C01D928B
:10008000A931B207E1F70E9430100C9480130C9450
:100090000000FC010FB6F8946091150370911603EF
:1000A00080911703909118030FBE309721F0608361
:1000B000718382839383089511B880E280B9089593
:1000C00094EA96BF06B607FEFDCF91B1987F9830AF
:1000D00071F483B984E886BF06B607FEFDCF81B10F
:1000E000887F883131F0803231F083E0089580E0FC
:1000F000089581E0089582E0089594EA96BF06B6D7
:1001000007FEFDCF91B1987F903171F483B984E8F7
:1001100086BF06B607FEFDCF81B1887F803431F0FF
:10012000803231F083E0089580E0089581E0089501
:1001300082E0089583B984E886BF06B607FEFDCF46
:1001400081B1887F883221F0803321F082E00895E8
:1001500080E0089581E0089584EC86BF06B607FE2E
:10016000FDCF83B1089584E886BF06B607FEFDCFB4
:1001700083B1089584E986BF06B604FCFDCF0895D7
:100180002FE789EA93E0215080409040E1F700C0DA
:10019000000080ED0E94600089E10E949A0087E0E3
:1001A0000E949A000E94BA0080ED0E9460008BE6D7
:1001B0000E949A0081E00E949A000E94BA0080ED9D
:1001C0000E9460008AE10E949A0080E00E949A00EA
:1001D0000E94BA0080ED0E9460008BE10E949A00AC
:1001E00088E10E949A000E94BA0080ED0E9460009F
:1001F0008CE10E949A0080E00E949A000E94BA005E
:1002000080ED0E9460008FE10E949A0080E00E94D1
:100210009A000E94BA0080ED0E94600083E20E9472
:100220009A0080E00E949A000E94BA0080ED0E942D
:1002300060008DE10E949A0080E00E949A000E9476
:10024000BA0080ED0E9460008EE10E949A0080E07A
:100250000E949A000E94BA0080ED0E94600080E235
:100260000E949A0080E00E949A000E94BA0080EDED
:100270000E94600082E20E949A0080E00E949A0040
:100280000E94BA0080ED0E94600081E20E949A0004
:1002900080E00E949A000E94BA0080ED0E946000F7
:1002A00084E20E949A0080E00E949A000E94BA00B4
:1002B00080ED0E94600086E20E949A0080E00E9429
:1002C0009A000E94BA0080ED0E94600085E20E94C0
:1002D0009A0080E00E949A000E94BA0080ED0E947D
:1002E000600087E20E949A0080E00E949A000E94CB
:1002F000BA0080ED0E94600089E20E949A0080E0CE
:100300000E949A000E94BA0080ED0E94600088E27C
:100310000E949A0080E00E949A000E94BA0080ED3C
:100320000E9460008AE20E949A0080E00E949A0087
:100330000E94BA0080ED0E9460008CE20E949A0048
:1003400080E00E949A000E94BA0080ED0E94600046
:100350008BE20E949A0080E00E949A000E94BA00FC
:1003600080ED0E9460008DE20E949A0080E00E9471
:100370009A000E94BA0080ED0E9460008FE20E9405
:100380009A0080E00E949A000E94BA0080ED0E94CC
:1003900060008EE20E949A0080E00E949A000E9413
:1003A000BA0080ED0E94600080E30E949A0080E025
:1003B0000E949A000E94BA0080ED0E94600082E3D1
:1003C0000E949A0080E00E949A000E94BA0080ED8C
:1003D0000E94600081E30E949A0080E00E949A00DF
:1003E0000E94BA0080ED0E94600084E30E949A009F
:1003F00080E00E949A000E94BA0080ED0E94600096
:1004000083E30E949A0080E00E949A000E94BA0052
:1004100080ED0E94600085E30E949A0080E00E94C7
:100420009A000E94BA0080ED0E94600087E30E945B
:100430009A0080E00E949A000E94BA0080ED0E941B
:10044000600088E30E949A0081E00E949A000E9466
:10045000BA0080ED0E94600083E60E949A0080E06E
:100460000E949A000E94BA0080ED0E94600084E61B
:100470000E949A0080E00E949A000E94BA0080EDDB
:100480000E94600085E60E949A0080E00E949A0027
:100490000E94BA0080ED0E94600086E60E949A00E9
:1004A00080E00E949A000E94BA0080ED0E946000E5
:1004B00087E60E949A0080E00E949A000E94BA009B
:1004C00080ED0E94600088E60E949A0080E00E9411
:1004D0009A000E94BA0080ED0E94600089E60E94A6
:1004E0009A0080E00E949A000E94BA0080ED0E946B
:1004F00060008AE60E949A0080E00E949A000E94B2
:10050000BA0080ED0E9460008CE60E949A0080E0B4
:100510000E949A000E94BA0080ED0E94600084E769
:100520000E949A0080E00E949A000E94BA000895FA
:1005300080ED0E9460008BE30E949A0081ED0E9492
:100540007D0008955F926F927F928F929F92AF92FB
:10055000BF92CF92DF92EF92FF920F931F93CF93B0
:10056000DF935C01EB014A0139010E9498020E946D
:10057000AC00582E0E94AC00652D70E0762F6627E7
:10058000682B719561957109072E000C880B990BEA
:100590000E94FB10F50160837183828393830E9424
:1005A000AC00B82E0E94AC006B2D70E0762F662751
:1005B000682B719561957109072E000C880B990BBA
:1005C0000E94FB10688379838A839B830E94AC001E
:1005D000C82F0E94AC006C2F70E0762F6627682B26
:1005E000719561957109072E000C880B990B0E947B
:1005F000FB10F40160837183828393830E94AC00BB
:10060000C82F0E94AC006C2F70E0762F6627682BF5
:10061000072E000C880B990B0E94FB10F3016083DE
:100620007183828393830E94AC00C82F0E94AC0028
:100630006C2F70E0762F6627682B71956195710994
:10064000072E000C880B990B0E94FB10F8016083A9
:100650007183828393830E94AC00C82F0E94AC00F8
:100660006C2F70E0762F6627682B71956195710964
:10067000072E000C880B990B0E94FB10F70160837A
:100680007183828393830E94AC00C82F0E94B300C1
:100690006C2F70E0762F6627682B71956195710934
:1006A000072E000C880B990B0E94FB10F60160834B
:1006B0007183828393830E94BA00DF91CF911F914F
:1006C0000F91FF90EF90DF90CF90BF90AF909F90F1
:1006D0008F907F906F905F900895672B09F09FC077
:1006E000009711F4D89808958130910511F4D998A4
:1006F00008958230910511F4DA98089583309105B8
:1007000011F4DB9808958430910511F4DC98089574
:100710008530910511F4DD9808958630910511F426
:10072000DE9808958730910511F4DF9808958A3096
:10073000910511F4C09808958B30910511F4C1987A
:1007400008958C30910511F4C29808958D3091056B
:1007500011F4C39808958E30910511F4C49808954A
:100760008F30910511F4C59808958031910511F4E9
:10077000C69808958131910511F4C7980895843180
:10078000910511F4A89808958531910511F4A9985F
:1007900008958631910511F4AA980895873191053D
:1007A00011F4AB9808958831910511F4AC9808952F
:1007B0008931910511F4AD9808958A31910511F4AC
:1007C000AE9808958B31910511F4AF9808958E314C
:1007D000910511F4909808958F31910511F4919835
:1007E00008958032910511F492980895813291050F
:1007F00011F4939808958232910511F49498089514
:100800008332910511F4959808958432910511F47D
:1008100096980895859709F09FC097980895009736
:1008200011F4D89A08958130910511F4D99A089558
:100830008230910511F4DA9A08958330910511F40C
:10084000DB9A08958430910511F4DC9A089585307F
:10085000910511F4DD9A08958630910511F4DE9A20
:1008600008958730910511F4DF9A08958A30910533
:1008700011F4C09A08958B30910511F4C19A08952E
:100880008C30910511F4C29A08958D30910511F4C0
:10089000C39A08958E30910511F4C49A08958F304B
:1008A000910511F4C59A08958031910511F4C69A05
:1008B00008958131910511F4C79A08958431910505
:1008C00011F4A89A08958531910511F4A99A089513
:1008D0008631910511F4AA9A08958731910511F492
:1008E000AB9A08958831910511F4AC9A0895893135
:1008F000910511F4AD9A08958A31910511F4AE9ADB
:1009000008958B31910511F4AF9A08958E319105B8
:1009100011F4909A08958F31910511F4919A0895E8
:100920008032910511F4929A08958132910511F463
:10093000939A08958232910511F4949A089583321E
:10094000910511F4959A08958432910511F4969ABF
:100950000895859709F4979A0895CF93C82F80FF3B
:1009600007C061E070E08EE190E00E946D0306C078
:1009700060E070E08EE190E00E946D03C1FF07C06F
:1009800061E070E08FE190E00E946D0306C060E0DE
:1009900070E08FE190E00E946D03C2FF07C061E04C
:1009A00070E080E290E00E946D0306C060E070E0BD
:1009B00080E290E00E946D03C3FF07C061E070E039
:1009C00081E290E00E946D0306C060E070E081E289
:1009D00090E00E946D03C4FF07C061E070E082E216
:1009E00090E00E946D0306C060E070E082E290E05B
:1009F0000E946D03C5FF07C061E070E083E290E0F4
:100A00000E946D0306C060E070E083E290E00E9407
:100A10006D03C6FF07C061E070E084E290E00E94D1
:100A20006D0306C060E070E084E290E00E946D0318
:100A3000CC233CF461E070E085E290E00E946D031D
:100A400006C060E070E085E290E00E946D03CF9107
:100A50000895CF93C82F60E070E08AE190E00E9493
:100A60006D038C2F0E94AD0461E070E08BE190E09B
:100A70000E946D038FEC97E00197F1F700C0000032
:100A800060E070E08BE190E00E946D038FEC97E0F6
:100A90000197F1F700C00000CF91089581E00E9416
:100AA0002905089560E070E08AE190E00E946D03FE
:100AB00060E070E08BE190E00E946D038FE39CE9C1
:100AC0000197F1F700C0000080E30E9429058FE044
:100AD00097E20197F1F700C0000080E30E9429052A
:100AE0008FEC97E00197F1F700C0000080E30E94CF
:100AF00029058FE19EE40197F1F700C0000088E32B
:100B00000E9429058CE00E94290581E00E942905A8
:100B100086E00E9429050895CF93C82F61E070E018
:100B20008AE190E00E946D038C2F0E94AD0461E089
:100B300070E08BE190E00E946D038FEC97E00197ED
:100B4000F1F700C0000060E070E08BE190E00E94EF
:100B50006D038FEC97E00197F1F700C00000CF9193
:100B60000895CF93DF93EC018881882331F021969B
:100B70000E948C0589918111FBCFDF91CF9108955F
:100B80000E94C3106115710571F020E030E0EAE0C9
:100B9000F0E02F5F3F4FCB01BF010E94991261151A
:100BA0007105B9F702C020E030E0C9010895CF9285
:100BB000DF92EF92FF920F931F93CF93DF93EC019D
:100BC0008B01BC01990F880B990B0E94FB100E94AE
:100BD000C0057C01209731F480E3D8018C931196F5
:100BE0001C9227C09801F8010F2EFAE0CF2ED12CCD
:100BF000F02DCE01B6010E949912805D8193C62F1F
:100C0000D72F2097B1F7C7010197181619068CF452
:100C1000F801EE0DFF1D40E050E0D9016C9172919A
:100C20007D939D0160834F5F5F4F01974817590780
:100C3000A4F3DF91CF911F910F91FF90EF90DF9080
:100C4000CF900895CF93DF93EC01BC01990F880BEF
:100C5000990B0E94FB1020E030E040E05EE30E9430
:100C600008120E9436110E94C310677070787723B3
:100C700034F461507109686F7F6F6F5F7F4F862F0B
:100C8000972FC770DD27CD2B71F4695F7F4F677099
:100C90007078772334F461507109686F7F6F6F5FEC
:100CA0007F4F862F972FDF91CF910895877090788F
:100CB000992324F40197886F9F6F01960796877098
:100CC0009078992324F40197886F9F6F0196877F0E
:100CD00008954091C9025091CA0214161506CCF429
:100CE0002091EB003091EC0082179307A9F0EDEE14
:100CF000F0E0440F551F45515F4F05C021913191E0
:100D00002817390761F0E417F507C1F780E090E094
:100D1000089580E090E0089581E090E0089581E0FA
:100D200090E00895FC01808191816817790799F01E
:100D3000828193816817790789F08481958168178A
:100D4000790779F081E090E026813781261737070F
:100D500051F080E0089581E090E0089581E090E016
:100D6000089581E090E00895CF93DF93EC018091A6
:100D70006400909165008330910581F5BE018EE994
:100D800090E00E949206892B09F063C0BE0186E9BB
:100D900090E00E949206892B09F05BC0BE018EE8AC
:100DA00090E00E949206892B09F053C0BE0186E8AC
:100DB00090E00E949206892B09F04BC0BE018EE79D
:100DC00090E00E949206892B09F043C0BE0186E79D
:100DD00090E00E949206892BE1F53AC00497C1F594
:100DE000BE018EE990E00E949206892B91F5BE012A
:100DF00086E990E00E949206892B59F5BE018EE8A3
:100E000090E00E949206892B21F5BE0186E890E0D1
:100E10000E949206892BE9F4BE018EE790E00E94C1
:100E20009206892BB1F4BE0186E790E00E949206FB
:100E3000892B79F4BE018EE690E00E949206892B00
:100E400041F4BE0186E690E00E949206892B09F4E7
:100E500002C081E090E0DF91CF910895AF92BF9200
:100E6000CF92DF92EF92FF920F931F93CF93DF9376
:100E70007C016C0188E0C80ED11CF701A190B190F3
:100E80007F01C5010E9422068C01C5010E94560601
:100E9000EC01B501BB0C880B990B0E94FB1020E004
:100EA00030E040E85CE30E9408120E9435100E9486
:100EB000C3102091D0006130710509F163307105D4
:100EC000B9F0CC0FDD1FCC0FDD1FC22BC262635007
:100ED00071096230710508F42160000F111F000FC5
:100EE000111F022B0BBBC8BBEC14FD0431F60EC066
:100EF000CC0FDD1FCC0FDD1FC22BC062EDCFCC0F9E
:100F0000DD1FCC0FDD1FC22BC062E7CFDF91CF9179
:100F10001F910F91FF90EF90DF90CF90BF90AF9017
:100F200008958EE990E00E942E0786E990E00E94E5
:100F30002E078EE890E00E942E0786E890E00E943F
:100F40002E078EE790E00E942E0786E790E00E9431
:100F50002E0708950E9491078EE690E00E942E07CA
:100F600086E690E00E942E0708958F929F92AF929E
:100F7000BF92CF92DF92FF920F931F93CF93DF9395
:100F80006C01F090D000CF2DD0E0FC01EE0FFF1FE0
:100F9000E551FF4F00811181B801012E000C880B33
:100FA000990B0E94FB1020E030E040E85CE30E94D7
:100FB00008120E9435100E94C3104B015C01C0FC56
:100FC00005C08F2D8062C82ED12C01C06E01C801D2
:100FD0008F7701978034910510F06894C1F8C801AB
:100FE0000E945606880F991F880F991FC82AD92A70
:100FF00081E0881A910882E08816910418F0CF2DBC
:10100000C160D0E0C8010E942206880F991F880F96
:10101000991FC82BD92BCBBBC8BADF91CF911F9199
:101020000F91FF90DF90CF90BF90AF909F908F90E7
:101030000895EF92FF920F931F93CF93DF937C015C
:101040000E9422068C01C7010E945606EC01B701DE
:10105000FF0C880B990B0E94FB1020E030E040E869
:101060005CE30E9408120E9435100E94C310209178
:10107000D000E22FE1606230710519F06430710533
:1010800019F4322F316201C03E2FCC0FDD1FCC0F7F
:10109000DD1FC32B635071096230710508F42E2FD8
:1010A000000F111F000F111F022B0BBBC8BBDF91DC
:1010B000CF911F910F91FF90EF90089586EA90E0F5
:1010C0000E94B1052FEF84E39CE0215080409040C6
:1010D000E1F700C000000E944E0581E80E9429054A
:1010E0008EEA90E00E94B10588E80E94290569EF28
:1010F00071E080916400909165000E94D70589EFAE
:1011000091E00E94B10581EC0E94290586EB90E0F8
:101110000E94B10588EC0E94290569EF71E0809179
:10112000D5009091D6000E94D70589EF91E00E94EA
:10113000B105089580E090E00E9449000E941213DA
:1011400080916400909165008F3F2FEF920799F492
:101150008FEF8ABB84BB87BB81BB81E090E090931B
:101160006500809364000E94520581E80E94290571
:101170000E945E081BC001969093650080936400F6
:1011800088E80E94290569EF71E0809164009091E0
:1011900065000E94D70589EF91E00E94B10588ECB7
:1011A0000E9429058EEB90E00E94B1051BBA8FEFDB
:1011B00088BB80916400909165008130910569F44D
:1011C00080E090E0A6E9B3E48093D1009093D20050
:1011D000A093D300B093D40011C005976CF480E0C5
:1011E00090E0A0EFB2E48093D1009093D200A0935E
:1011F000D300B093D40002C00E9446091092D600DA
:101200001092D5001092D0021092CF020E940D13BE
:10121000907899231CF401979F6F01969C012F5F92
:101220003F4F211541E0340729F03093E20220932B
:10123000E10204C09093E2028093E10281E090E039
:10124000909314038093130322E030E03093F40171
:101250002093F3011092CC021092CB0223E030E0F5
:101260003093CA022093C9029093CE028093CD029C
:10127000EBEEF0E08BE691E011921192E817F9079E
:10128000D9F70E945C000E94C00008951BBA8FEF3E
:1012900082BB88BB81E80E94290580EC90E00E9417
:1012A000B10585E80E94290585EC90E00E94B10512
:1012B0002FEF89E698E1215080409040E1F700C08F
:1012C00000000E944E051092D6001092D5008FEFBC
:1012D0009FEF90936500809364000E949A080895A0
:1012E0000F931F93CF93DF93E091C902F091CA024D
:1012F000CF010197181619066CF4EE0FFF1FE75186
:10130000FF4F2BEE30E09291829193838283E2171C
:10131000F307C9F78091F3019091F4019093EC00E9
:101320008093EB00209164003091650023303105FB
:1013300034F00E94B406892B11F00E944609809176
:10134000C9029091CA020397CCF00FEE10E0C2E000
:10135000D0E0F801219131918F018091F3019091BA
:10136000F4012817390711F40E944609219680914B
:10137000C9029091CA02C817D9075CF3DF91CF91D7
:101380001F910F9108950F931F93CF93DF93209197
:10139000E1023091E2028091F3019091F40128176B
:1013A000390709F0A7C08091C9029091CA0201963D
:1013B0009093CA028093C9028091D5009091D60083
:1013C00001969093D6008093D50088EC0E94290561
:1013D00069EF71E08091D5009091D6000E94D70509
:1013E00089EF91E00E94B105DF9A8FEC97E00197B9
:1013F000F1F700C00000DF980E940D139078992348
:101400001CF401979F6F0196082F192FEC0121966C
:10141000CE010E946906892B79F7CE010E94B4069D
:10142000892B31F08091640090916500039724F737
:10143000D093E202C093E102CF3FD10559F48091ED
:10144000640090916500029709F04EC00093E1029C
:101450001093E202C091E102D091E202CE010E941B
:1014600056068C01BE01DD0F880B990B0E94FB1004
:1014700020E030E040E85CE30E9408120E94351052
:101480000E94C3106230710519F064307105B9F41F
:10149000012BA9F40E940D1383709078992324F4F2
:1014A00001978C6F9F6F019601962091E102309118
:1014B000E202820F931F9093E2028093E1028091F7
:1014C000D5009091D6000397A9F41BBA8FEF82BB89
:1014D0009FEF21EE84E0915020408040E1F700C072
:1014E00000000E949A0806C08FEF90E00E94560606
:1014F0008C01CECFDF91CF911F910F910895EF9284
:10150000FF920F931F93CF93DF9381E090E090932E
:10151000D0028093CF028091F3019091F4019C015D
:1015200027703327232B09F07DC02091CB02309107
:10153000CC02A9014D7F452B31F4C9969093F4015B
:101540008093F30106C0875491099093F40180932E
:10155000F30181E028273093CC022093CB020E9434
:10156000C3090E94700980916400909165008330E6
:101570009105FCF46091C9027091CA02072E000C1B
:10158000880B990B0E94FB109B01AC016091D1006C
:101590007091D2008091D3009091D4000E9451109C
:1015A0000E9475120E94C3107B011616170684F163
:1015B000A1C0039709F4A5C06894EE24E2F8F12CC9
:1015C00027C0C0E0D0E0CE010E94B50721968091EF
:1015D000C9029091CA02C817D907ACF38091E10201
:1015E0009091E2020E941908809164009091650038
:1015F0008330910519F40E94910704C0049711F4F7
:101600000E94AA070F5F1F4F0E151F051CF072C026
:1016100000E010E08091C9029091CA0218161906E4
:1016200084F2DCCF01969093F4018093F3010E9441
:10163000C3090E9470098091640090916500833015
:101640009105FCF46091C9027091CA02072E000C4A
:10165000880B990B0E94FB109B01AC016091D1009B
:101660007091D2008091D3009091D4000E945110CB
:101670000E9475120E94C3107B011616170684F192
:1016800039C0039709F443C06894EE24E2F8F12CC2
:1016900027C0C0E0D0E0CE010E94B507219680911E
:1016A000C9029091CA02C817D907ACF38091E10230
:1016B0009091E2020E941908809164009091650067
:1016C0008330910519F40E94910704C0049711F426
:1016D0000E94AA070F5F1F4F0E151F051CF00AC0BE
:1016E00000E010E08091C9029091CA021816190614
:1016F00084F2DCCF81E090E0909314038093130395
:101700000CC00F2EF5E0EF2EF12CF02D81CF0F2E17
:10171000F5E0EF2EF12CF02DE3CFDF91CF911F916B
:101720000F91FF90EF900895EF92FF920F931F9308
:10173000CF93DF9381E090E09093D0028093CF022B
:101740008091F3019091F4019C01295F3F4F277034
:101750003327232B09F07DC02091CB023091CC029E
:10176000A9014D7F452B39F4895B9F4F9093F4017C
:101770008093F30105C0C9979093F4018093F3011E
:1017800081E028273093CC022093CB020E94C3092A
:101790000E947009809164009091650083309105EA
:1017A000FCF46091C9027091CA02072E000C880BEC
:1017B000990B0E94FB109B01AC016091D1007091CC
:1017C000D2008091D3009091D4000E9451100E94C9
:1017D00075120E94C3107B011616170684F1A1C072
:1017E000039709F4A5C06894EE24E2F8F12C27C011
:1017F000C0E0D0E0CE010E94B50721968091C902D9
:101800009091CA02C817D907ACF38091E102909178
:10181000E2020E9419088091640090916500833073
:10182000910519F40E94910704C0049711F40E94D5
:10183000AA070F5F1F4F0E151F051CF072C000E0B6
:1018400010E08091C9029091CA021816190684F21C
:10185000DCCF01979093F4018093F3010E94C309B8
:101860000E94700980916400909165008330910519
:10187000FCF46091C9027091CA02072E000C880B1B
:10188000990B0E94FB109B01AC016091D1007091FB
:10189000D2008091D3009091D4000E9451100E94F8
:1018A00075120E94C3107B011616170684F139C009
:1018B000039709F443C06894EE24E2F8F12C27C0A2
:1018C000C0E0D0E0CE010E94B50721968091C90208
:1018D0009091CA02C817D907ACF38091E1029091A8
:1018E000E2020E94190880916400909165008330A3
:1018F000910519F40E94910704C0049711F40E9405
:10190000AA070F5F1F4F0E151F051CF00AC000E04D
:1019100010E08091C9029091CA021816190684F24B
:10192000DCCF83E090E090931403809313030CC00A
:101930000F2EF5E0EF2EF12CF02D81CF0F2EF5E0DC
:10194000EF2EF12CF02DE3CFDF91CF911F910F916E
:10195000FF90EF900895EF92FF920F931F93CF9314
:10196000DF9381E090E09093D0028093CF02C0910A
:10197000F301D091F401CE010E942206892B09F0D7
:1019800076C0CE018F7B81589109089738F4C854EE
:10199000D109D093F401C093F30106C0C854DF4FBE
:1019A000D093F401C093F3010E94C3090E9470090F
:1019B000809164009091650083309105FCF4609102
:1019C000C9027091CA02072E000C880B990B0E9465
:1019D000FB109B01AC016091D1007091D20080910D
:1019E000D3009091D4000E9451100E9475120E9461
:1019F000C3107B011616170684F1A1C0039709F4E2
:101A0000A5C06894EE24E2F8F12C27C0C0E0D0E035
:101A1000CE010E94B50721968091C9029091CA0219
:101A2000C817D907ACF38091E1029091E2020E94BD
:101A3000190880916400909165008330910519F434
:101A40000E94910704C0049711F40E94AA070F5F37
:101A50001F4F0E151F051CF072C000E010E08091B2
:101A6000C9029091CA021816190684F2DCCF289791
:101A7000D093F401C093F3010E94C3090E9470093E
:101A8000809164009091650083309105FCF4609131
:101A9000C9027091CA02072E000C880B990B0E9494
:101AA000FB109B01AC016091D1007091D20080913C
:101AB000D3009091D4000E9451100E9475120E9490
:101AC000C3107B011616170684F139C0039709F479
:101AD00043C06894EE24E2F8F12C27C0C0E0D0E0C7
:101AE000CE010E94B50721968091C9029091CA0249
:101AF000C817D907ACF38091E1029091E2020E94ED
:101B0000190880916400909165008330910519F463
:101B10000E94910704C0049711F40E94AA070F5F66
:101B20001F4F0E151F051CF00AC000E010E0809149
:101B3000C9029091CA021816190684F2DCCF82E01D
:101B400090E090931403809313030CC00F2EF5E0E4
:101B5000EF2EF12CF02D81CF0F2EF5E0EF2EF12C92
:101B6000F02DE3CFDF91CF911F910F91FF90EF9078
:101B70000895EF92FF920F931F93CF93DF9381E02D
:101B800090E09093D0028093CF02C091F301D09166
:101B9000F401CE010E942206079709F079C0CE0118
:101BA000C9978830910520F080549109089738F43E
:101BB000C85BDF4FD093F401C093F30106C0C85B4C
:101BC000D109D093F401C093F3010E94C3090E948C
:101BD0007009809164009091650083309105FCF458
:101BE0006091C9027091CA02072E000C880B990BF4
:101BF0000E94FB109B01AC016091D1007091D2005A
:101C00008091D3009091D4000E9451100E947512CF
:101C10000E94C3107B011616170684F1A1C003971A
:101C200009F4A5C06894EE24E2F8F12C27C0C0E0C6
:101C3000D0E0CE010E94B50721968091C902909113
:101C4000CA02C817D907ACF38091E1029091E20271
:101C50000E9419088091640090916500833091057D
:101C600019F40E94910704C0049711F40E94AA0776
:101C70000F5F1F4F0E151F051CF072C000E010E033
:101C80008091C9029091CA021816190684F2DCCF1D
:101C90002896D093F401C093F3010E94C3090E94D7
:101CA0007009809164009091650083309105FCF487
:101CB0006091C9027091CA02072E000C880B990B23
:101CC0000E94FB109B01AC016091D1007091D20089
:101CD0008091D3009091D4000E9451100E947512FF
:101CE0000E94C3107B011616170684F139C00397B2
:101CF00009F443C06894EE24E2F8F12C27C0C0E058
:101D0000D0E0CE010E94B50721968091C902909142
:101D1000CA02C817D907ACF38091E1029091E202A0
:101D20000E941908809164009091650083309105AC
:101D300019F40E94910704C0049711F40E94AA07A5
:101D40000F5F1F4F0E151F051CF00AC000E010E0CA
:101D50008091C9029091CA021816190684F2DCCF4C
:101D600084E090E090931403809313030CC00F2E33
:101D7000F5E0EF2EF12CF02D81CF0F2EF5E0EF2EB8
:101D8000F12CF02DE3CFDF91CF911F910F91FF90B8
:101D9000EF9008958F929F92AF92BF92CF92DF9271
:101DA000EF92FF920F931F930F2EF1EDCF2EF2E0E3
:101DB000DF2EF02D0F2EF7EEEF2EF2E0FF2EF02D9E
:101DC0000BEE11E02FEE31E043EE50E065EF71E0F5
:101DD00085ED92E00E94A20220E030E040E858E366
:101DE0006091F5017091F6018091F7019091F801F1
:101DF0000E9408126B017C0120E030E040E858E3CB
:101E00006091D5027091D6028091D7029091D8024C
:101E10000E9408122DEC3CEC4CE151E40E940812A7
:101E20004B015C016093D9027093DA028093DB026C
:101E30009093DC022DEC3CEC4CE151E4C701B6017F
:101E40000E9408126B017C016093DD027093DE0238
:101E50008093DF029093E00223E333E343E851E40D
:101E60006091EB017091EC018091ED019091EE0198
:101E70000E9451106093DF007093E0008093E100B6
:101E80009093E20023E333E343E851E46091E702F7
:101E90007091E8028091E9029091EA020E9451104B
:101EA0006093DB007093DC008093DD009093DE0094
:101EB00023E333E343E851E46091D1027091D2020D
:101EC0008091D3029091D4020E9451106093D70068
:101ED0007093D8008093D9009093DA0020E030E02E
:101EE00040E450ECC701B6010E944C10882374F402
:101EF0008091CD029091CE02019709F46AC082E0F0
:101F000090E09093CE028093CD0254C020E030E068
:101F100040E450E4C701B6010E940312181674F49D
:101F20008091CD029091CE02029709F45EC081E0CB
:101F300090E09093CE028093CD0236C020E030E056
:101F400040E450E4C501B4010E940312181674F471
:101F50008091CD029091CE02049709F452C083E0A3
:101F600090E09093CE028093CD022AC020E030E032
:101F700040E450ECC501B4010E944C1088236CF47D
:101F80008091CD029091CE020397D1F084E090E051
:101F90009093CE028093CD0219C08091CD02909192
:101FA000CE028130910519F40E947F0A4EC0823022
:101FB000910519F40E94940B48C08330910519F4DF
:101FC0000E94AB0C42C0049709F03FC00E94B90DBB
:101FD0003CC020E030E040E450E4C701B6010E947C
:101FE000031218160CF4A3CF18C020E030E040E430
:101FF00050E4C501B4010E94031218160CF4AFCFCF
:1020000018C020E030E040E450ECC501B4010E946B
:102010004C1088230CF4BACFD9CF20E030E040E454
:1020200050E4C501B4010E94031218160CF497CFB6
:102030009DCF20E030E040E450ECC501B4010E94A7
:102040004C1088230CF4A2CFA8CF1F910F91FF90C2
:10205000EF90DF90CF90BF90AF909F908F900895BA
:102060000E949A080E94CA0EFDCF0E94E41190F0CF
:102070009F3748F4911116F40C94FD1160E070E064
:1020800080E89FE3089526F01B16611D711D811DD8
:102090000C9477110C9492110E944D1108F481E078
:1020A00008950E9465100C94B1110E94AA1158F075
:1020B0000E94A31140F029F45F3F29F00C947111A4
:1020C00051110C94FD110C94A0110E94C21168F3DF
:1020D0009923B1F3552391F3951B550BBB27AA27E1
:1020E00062177307840738F09F5F5F4F220F331F1B
:1020F000441FAA1FA9F335D00E2E3AF0E0E832D0E3
:1021000091505040E695001CCAF72BD0FE2F29D0E5
:10211000660F771F881FBB1F261737074807AB07B7
:10212000B0E809F0BB0B802DBF01FF2793585F4F2C
:102130003AF09E3F510578F00C9471110C94FD110A
:102140005F3FE4F3983ED4F3869577956795B7950E
:10215000F7959F5FC9F7880F911D9695879597F919
:102160000895E1E0660F771F881FBB1F6217730792
:102170008407BA0720F0621B730B840BBA0BEE1FA7
:1021800088F7E09508950E94CA106894B1110C94E4
:10219000FD1108950E94CA1188F09F5798F0B92F39
:1021A0009927B751B0F0E1F0660F771F881F991F8C
:1021B0001AF0BA95C9F714C0B13091F00E94FC1121
:1021C000B1E008950C94FC11672F782F8827B85F31
:1021D00039F0B93FCCF3869577956795B395D9F7E4
:1021E0003EF490958095709561957F4F8F4F9F4FEE
:1021F0000895E89409C097FB3EF4909580957095FA
:1022000061957F4F8F4F9F4F9923A9F0F92F96E942
:10221000BB279395F695879577956795B795F111B7
:10222000F8CFFAF4BB0F11F460FF1BC06F5F7F4F54
:102230008F4F9F4F16C0882311F096E911C0772366
:1022400021F09EE8872F762F05C0662371F096E86F
:10225000862F70E060E02AF09A95660F771F881F3E
:10226000DAF7880F9695879597F908950E94E411FB
:1022700090F09F3748F4911116F00C94FD1160E036
:1022800070E080E89FEB089526F41B16611D711D18
:10229000811D0C9477110C949211990F0008550F21
:1022A000AA0BE0E8FEEF16161706E807F907C0F0DC
:1022B00012161306E407F50798F0621B730B840BE4
:1022C000950B39F40A2661F0232B242B252B21F4BE
:1022D00008950A2609F4A140A6958FEF811D811D5E
:1022E000089597F99F6780E870E060E0089588237B
:1022F00071F4772321F09850872B762F07C066233F
:1023000011F499270DC09051862B70E060E02AF0FF
:102310009A95660F771F881FDAF7880F969587952D
:1023200097F908959F3F31F0915020F48795779564
:102330006795B795880F911D9695879597F908959C
:102340009FEF80EC089500240A94161617061806CD
:102350000906089500240A941216130614060506A9
:102360000895092E0394000C11F4882352F0BB0F3A
:1023700040F4BF2B11F460FF04C06F5F7F4F8F4F9D
:102380009F4F089557FD9058440F551F59F05F3FD8
:1023900071F04795880F97FB991F61F09F3F79F087
:1023A00087950895121613061406551FF2CF469509
:1023B000F1DF08C0161617061806991FF1CF86958B
:1023C00071056105089408950E94CA11A0F0BEE746
:1023D000B91788F4BB279F3860F41616B11D672F14
:1023E000782F8827985FF7CF869577956795B11DE9
:1023F00093959639C8F30895E894BB276627772705
:10240000CB0197F908950E944D1108F48FEF0895BC
:102410000E941B120C94B1110E94A31138F00E946B
:10242000AA1120F0952311F00C9471110C94A011B5
:1024300011240C94FD110E94C21170F3959FC1F3F9
:10244000950F50E0551F629FF001729FBB27F00D62
:10245000B11D639FAA27F00DB11DAA1F649F6627B7
:10246000B00DA11D661F829F2227B00DA11D621F06
:10247000739FB00DA11D621F839FA00D611D221FC0
:10248000749F3327A00D611D231F849F600D211DA4
:10249000822F762F6A2F11249F5750409AF0F1F027
:1024A00088234AF0EE0FFF1FBB1F661F771F881F90
:1024B00091505040A9F79E3F510580F00C94711146
:1024C0000C94FD115F3FE4F3983ED4F38695779525
:1024D0006795B795F795E7959F5FC1F7FE2B880F36
:1024E000911D9695879597F908950E94CA11E8F075
:1024F0009E37E8F09639B8F49E3848F4672F782F65
:102500008827985FF9CF8695779567959395953944
:10251000D0F3B62FB1706B0F711D811D20F487951C
:102520007795679593950C9477110C9492110C9470
:10253000FD1197FB072E16F4009407D077FD09D004
:102540000E94AD1207FC05D03EF4909581959F4FF7
:102550000895709561957F4F0895AA1BBB1B51E1AB
:1025600007C0AA1FBB1FA617B70710F0A61BB70B03
:10257000881F991F5A95A9F780959095BC01CD01A8
:1025800008958F929F92AF92BF92CF92DF92EF9277
:10259000FF92CF93DF93EC01688179818A819B81DF
:1025A000611571058105910521F464E279ED8BE5F2
:1025B00097E02DE133EF41E050E00E941D13490107
:1025C0005A019B01AC01A7EAB1E40E943C136B01E4
:1025D0007C01ACEEB4EFA50194010E944A13DC012A
:1025E000CB018C0D9D1DAE1DBF1DB7FF03C0019714
:1025F000A109B04888839983AA83BB839F77DF9121
:10260000CF91FF90EF90DF90CF90BF90AF909F90D1
:102610008F9008950E94C112089580E690E00E9474
:10262000C1120895A0E0B0E0809360009093610033
:10263000A0936200B09363000895052E97FB1EF4EB
:1026400000940E94341357FD07D00E944F1307FCDB
:1026500003D04EF40C943413509540953095219549
:102660003F4F4F4F5F4F08959095809570956195BE
:102670007F4F8F4F9F4F08950E947113A59F900D1C
:10268000B49F900DA49F800D911D11240895B7FF54
:102690000C943C130E943C13821B930B0895A1E2FF
:1026A0001A2EAA1BBB1BFD010DC0AA1FBB1FEE1FCC
:1026B000FF1FA217B307E407F50720F0A21BB30B17
:1026C000E40BF50B661F771F881F991F1A9469F793
:1026D00060957095809590959B01AC01BD01CF01EF
:1026E0000895A29FB001B39FC001A39F700D811DEB
:1026F0001124911DB29F700D811D1124911D08950B
:04270000F894FFCF7B
:1027040001000000FFFF8A0092009A00A200CF009F
:10271400D700DF00E700F300F400F500F600B30093
:10272400B400B500B60097009800D100D20057005D
:102734005F0067006F00170018005100520012007C
:102744001A0022002A0047616D65204F6E004C6517
:1027540076656C3A200053636F72653A200030004E
:10276400202020200047616D65206F76657221006E
:00000001FF
